S00C0000536166652E7372656399
S11300000C942A000C9447000C9447000C9447006D
S11300100C9447000C9447000C9447000C94470040
S11300200C9447000C9447000C9447000C94470030
S11300300C9447000C9447000C9447000C94470020
S11300400C9447000C9447000C9447000C94470010
S11300500C94470011241FBECFE5D8E0DEBFCDBF0E
S113006010E0A0E6B0E0E4E1FCE002C005900D92EF
S1130070AA3CB107D9F710E0AAECB0E001C01D9288
S1130080AE3CB107E1F70E94F8040C9408060C9406
S11300900000843409F471C0853448F4823499F141
S11300A0833408F04DC0813409F083C00FC0823618
S11300B051F1833620F4813609F07BC007C08336C2
S11300C009F43EC0843609F074C057C0413069F465
S11300D02AB381E090E0AC0102C0440F551F6A9539
S11300E0E2F7BA01622B6ABB08952AB381E090E07B
S11300F0AC0102C0440F551F6A95E2F7BA0160953E
S113010062236ABB0895413069F427B381E090E02B
S1130110AC0102C0440F551F6A95E2F7BA01622B85
S113012067BB089527B381E090E0AC0102C0440F9F
S1130130551F6A95E2F7BA016095622367BB08957B
S1130140413069F424B381E090E0AC0102C0440F73
S1130150551F6A95E2F7BA01622B64BB089524B374
S113016081E090E0AC0102C0440F551F6A95E2F7AC
S1130170BA016095622364BB0895413069F421B3E8
S113018081E090E0AC0102C0440F551F6A95E2F78C
S1130190BA01622B61BB089521B381E090E0AC0108
S11301A002C0440F551F6A95E2F7BA0160956223B5
S11301B061BB0895843409F471C0853448F48234F1
S11301C099F1833408F04DC0813409F083C00FC025
S11301D0823651F1833620F4813609F07BC007C0A2
S11301E0833609F43EC0843609F074C057C04130E8
S11301F069F42BB381E090E0AC0102C0440F551FB9
S11302006A95E2F7BA01622B6BBB08952BB381E0C8
S113021090E0AC0102C0440F551F6A95E2F7BA01A1
S1130220609562236BBB0895413069F428B381E083
S113023090E0AC0102C0440F551F6A95E2F7BA0181
S1130240622B68BB089528B381E090E0AC0102C042
S1130250440F551F6A95E2F7BA016095622368BBA3
S11302600895413069F425B381E090E0AC0102C007
S1130270440F551F6A95E2F7BA01622B65BB0895D6
S113028025B381E090E0AC0102C0440F551F6A958C
S1130290E2F7BA016095622365BB0895413069F4C1
S11302A022B381E090E0AC0102C0440F551F6A956F
S11302B0E2F7BA01622B62BB089522B381E090E0B9
S11302C0AC0102C0440F551F6A95E2F7BA0160956C
S11302D0622362BB0895843409F43DC0853440F43C
S11302E08234F9F0833450F5813409F040C00CC0F5
S11302F08236B9F0833618F48136C9F505C08336E1
S1130300E9F08436A1F527C02BB381E090E0AC017D
S113031002C0440F551F6A95E2F7BA0162276BBB0E
S1130320089528B381E090E0AC0102C0440F551F4A
S11303306A95E2F7BA01622768BB089525B381E0A4
S113034090E0AC0102C0440F551F6A95E2F7BA0170
S1130350622765BB089522B381E090E0AC0102C03E
S1130360440F551F6A95E2F7BA01622762BB0895EC
S1130370843409F451C0853440F4823439F183342F
S1130380C0F5813409F05AC00EC08236F9F08336C4
S113039020F4813609F052C006C0833651F1843608
S11303A009F04CC039C029B381E090E0062E02C0A8
S11303B0880F991F0A94E2F730E08223932302C046
S11303C0969587956A95E2F7982F38C026B381E011
S11303D090E0062E02C0880F991F0A94E2F730E0DD
S11303E08223932302C0969587956A95E2F7982F06
S11303F025C023B381E090E0062E02C0880F991F28
S11304000A94E2F730E08223932302C096958795FD
S11304106A95E2F7982F12C020B381E090E0062E8F
S113042002C0880F991F0A94E2F730E082239323D5
S113043002C0969587956A95E2F7982F892F0895BB
S11304408434D9F0853438F4823499F0833498F4C0
S11304508134A1F40CC0823661F0833618F48136FD
S113046069F405C0833639F0843641F406C06ABBAA
S1130470089567BB089564BB089561BB08958434EF
S1130480D9F0853438F4823499F0833498F4813483
S1130490A1F40CC0823661F0833618F4813669F415
S11304A005C0833639F0843641F406C06BBB089529
S11304B068BB089565BB089562BB0895843409F14F
S11304C0853438F48234A9F08334B8F48134E1F407
S11304D00CC0823671F0833618F48136A9F405C055
S11304E0833659F0843681F40CC08BB380958BBB72
S11304F0089588B3809588BB089585B3809585BB9E
S1130500089582B3809582BB08958434D9F08534EC
S113051038F4823499F0833498F48134A1F40CC013
S1130520823661F0833618F4813669F405C0833667
S113053039F0843641F406C089B3089586B308952A
S113054083B3089580B30895843409F471C0853465
S113055048F4823499F1833408F04DC0813409F0B1
S113056083C00FC0823651F1833620F4813609F0FE
S11305707BC007C0833609F43EC0843609F074C0DA
S113058057C0413069F42BB381E090E0AC0102C064
S1130590440F551F6A95E2F7BA01622B6BBB0895AD
S11305A02BB381E090E0AC0102C0440F551F6A9563
S11305B0E2F7BA01609562236BBB0895413069F498
S11305C028B381E090E0AC0102C0440F551F6A9546
S11305D0E2F7BA01622B68BB089528B381E090E08A
S11305E0AC0102C0440F551F6A95E2F7BA01609549
S11305F0622368BB0895413069F425B381E090E03B
S1130600AC0102C0440F551F6A95E2F7BA01622B90
S113061065BB089525B381E090E0AC0102C0440FAE
S1130620551F6A95E2F7BA016095622365BB089588
S1130630413069F422B381E090E0AC0102C0440F80
S1130640551F6A95E2F7BA01622B62BB089522B383
S113065081E090E0AC0102C0440F551F6A95E2F7B7
S1130660BA016095622362BB08956F70843451F1BE
S1130670853438F48234C1F08334E8F4813441F5AC
S11306800CC0823689F0833618F4813609F505C02A
S1130690833689F08436E1F415C08BB3807F8BBB3D
S11306A08BB3682B6BBB089588B3807F88BB88B3FA
S11306B0682B68BB089585B3807F85BB85B3682BA1
S11306C065BB089582B3807F82BB82B3682B62BB13
S11306D008956295607F843451F1853438F482340E
S11306E0C1F08334E8F4813441F50CC0823689F0DA
S11306F0833618F4813609F505C0833689F08436CB
S1130700E1F415C08BB38F708BBB8BB3682B6BBBC1
S1130710089588B38F7088BB88B3682B68BB08952D
S113072085B38F7085BB85B3682B65BB089582B391
S11307308F7082BB82B3682B62BB08958EBB9FBB54
S11307406DBBE29AE19AE199FECF08958EBB9FBBFF
S1130750E09A8DB3089581E460E041E00E9449008D
S113076081E461E041E00E94490081E462E041E00B
S11307700E94490081E463E041E00E94490081E471
S113078064E040E00E94490081E465E040E00E94AA
S1130790490081E466E040E00E94490081E467E0AA
S11307A040E00E94490081E464E041E00E94A40228
S11307B081E465E041E00E94A40281E466E041E056
S11307C00E94A40281E467E041E00E94A40208952B
S11307D0EF92FF921F93CF93DF93CDB7DEB760976D
S11307E00FB6F894DEBF0FBECDBFDE011196E0E672
S11307F0F0E080E101900D928150E1F7EE24FF24B6
S113080081E460E041E00E94DA0081E461E041E0DB
S11308100E94DA0081E462E041E00E94DA0081E4AF
S113082063E041E00E94DA0081E46E2D40E00E9422
S1130830DA0010E0612F6C5F81E40E94B801882324
S113084089F4F701EE0FFF1FEE0FFF1FE10FF11DFB
S113085081E090E08C0F9D1FE80FF91F80818F3F8E
S113086021F00BC01F5F143029F70894E11CF11C20
S113087094E0E916F10421F68FEF60960FB6F89430
S1130880DEBF0FBECDBFDF91CF911F91FF90EF90E0
S1130890089582E460E041E00E94DA008FE99FE07D
S11308A00197F1F700C0000082E460E040E00E949C
S11308B0DA008FE99FE00197F1F700C00000089586
S11308C0682F84E40E943F0282E461E041E00E94D8
S11308D0DA000E9449040895682F84E40E943F02CC
S11308E082E461E040E00E94DA000E944904089535
S11308F08FEF91EEA4E081509040A040E1F700C05A
S1130900000084E46FEF0E94200282E460E041E092
S11309100E94490082E461E041E00E94490082E4CF
S113092062E041E00E94490082E462E040E00E940B
S1130930DA0088E30E946C04AFECB7E01197F1F79A
S113094000C000008CE00E946C048FEC97E00197DB
S1130950F1F700C0000081E00E946C04AFE1BEE446
S11309601197F1F700C0000086E00E946C048FEC40
S113097097E00197F1F700C00000089581E00E941C
S11309806C048FE19EE40197F1F700C00000089524
S1130990CF93DF93EC018881882331F021960E9464
S11309A0600489918823D9F7DF91CF910895282F86
S11309B02150223070F4613170F4662371F081307B
S11309C019F4962F91580AC0823041F4962F91540D
S11309D005C090E803C090E801C090E8892F0E9408
S11309E06C048FEC97E00197F1F700C000000895C4
S11309F02F923F924F925F927F928F929F92AF92EB
S1130A00BF92CF92DF92EF92FF920F931F93CF93F7
S1130A10DF930E94AB030E94780480E290E00E947E
S1130A20A6038F3FA1F580E790E00E94C8048FEFF2
S1130A3099E6A8E181509040A040E1F700C0000091
S1130A40C1E2D0E00E94E803182F8F3FD9F30E943F
S1130A5060048FEF94E3ACE081509040A040E1F754
S1130A6000C000006C2F675181E00E94D7048AE225
S1130A700E946004CE01612F0E949E032196C5321C
S1130A80D10501F780E290E060E00E949E0302E35A
S1130A900F2EFAE7AF2EF0E0BF2EF02D0F2EFAEC5A
S1130AA0CF2EF0E0DF2EF02D9C2C8D2C0F2EFCE0B1
S1130AB07F2EF02D0F2EF6E84F2EF0E05F2EF02D56
S1130AC00F2EF6E92F2EF0E03F2EF02D0E94BE04EB
S1130AD0C5010E94C8047601C92DD82D172D0E9486
S1130AE0E80388838F3FD9F30E9460048FEF94E377
S1130AF0ACE081509040A040E1F700C0000081E0EC
S1130B00612F0E94D7048AE20E9460041F5F21962D
S1130B10103129F7C1E2D0E0CE010E94A603D7012B
S1130B209D917D01891729F42196C532D105A1F73C
S1130B3059C0003319F10E94BE04C2010E94C804C6
S1130B408FEF99E6A8E181509040A040E1F700C002
S1130B50000082E061E00E94D704C1010E94C80441
S1130B60802F0E9460048FEF93EDA0E381509040AA
S1130B70A040E1F700C000000150A8CF0E94BE04CD
S1130B8086E890E00E94C8048FEF99E6A8E18150BE
S1130B909040A040E1F700C0000082E061E00E94C4
S1130BA0D70482EA90E00E94C8048FEF99E6A8E196
S1130BB081509040A040E1F700C0000080E090E048
S1130BC0DF91CF911F910F91FF90EF90DF90CF9025
S1130BD0BF90AF909F908F907F905F904F903F9089
S1130BE02F9008950E94BE048EEA90E00E94C804EB
S1130BF08FEF99E6A8E181509040A040E1F700C052
S1130C0000000E94BE048AEB90E00E94C804D6CF84
S1070C10F894FFCF82
S1130C143132332F3435362A3738392D41303D2B90
S1130C2453657420506173733A00436865636B20A1
S1130C34506173733A0057726F6E67205061737317
S1130C44776F726421005472696573206C656674ED
S1130C543A005361666520436C6F736564005361A5
S1130C646665204F70656E65640057656C636F6DCF
S10D0C74652041686D6564210000ED
S9030000FC
